{
  "_format": "hh-sol-artifact-1",
  "contractName": "TokenFaucet",
  "sourceName": "contracts/TokenFaucet.sol",
  "abi": [
    {
      "inputs": [
        {
          "internalType": "address",
          "name": "tokenAddress",
          "type": "address"
        }
      ],
      "stateMutability": "nonpayable",
      "type": "constructor"
    },
    {
      "anonymous": false,
      "inputs": [
        {
          "indexed": false,
          "internalType": "bool",
          "name": "paused",
          "type": "bool"
        }
      ],
      "name": "FaucetPaused",
      "type": "event"
    },
    {
      "anonymous": false,
      "inputs": [
        {
          "indexed": true,
          "internalType": "address",
          "name": "user",
          "type": "address"
        },
        {
          "indexed": false,
          "internalType": "uint256",
          "name": "amount",
          "type": "uint256"
        },
        {
          "indexed": false,
          "internalType": "uint256",
          "name": "timestamp",
          "type": "uint256"
        }
      ],
      "name": "TokensClaimed",
      "type": "event"
    },
    {
      "inputs": [],
      "name": "COOLDOWN_TIME",
      "outputs": [
        {
          "internalType": "uint256",
          "name": "",
          "type": "uint256"
        }
      ],
      "stateMutability": "view",
      "type": "function"
    },
    {
      "inputs": [],
      "name": "FAUCET_AMOUNT",
      "outputs": [
        {
          "internalType": "uint256",
          "name": "",
          "type": "uint256"
        }
      ],
      "stateMutability": "view",
      "type": "function"
    },
    {
      "inputs": [],
      "name": "MAX_CLAIM_AMOUNT",
      "outputs": [
        {
          "internalType": "uint256",
          "name": "",
          "type": "uint256"
        }
      ],
      "stateMutability": "view",
      "type": "function"
    },
    {
      "inputs": [],
      "name": "admin",
      "outputs": [
        {
          "internalType": "address",
          "name": "",
          "type": "address"
        }
      ],
      "stateMutability": "view",
      "type": "function"
    },
    {
      "inputs": [
        {
          "internalType": "address",
          "name": "user",
          "type": "address"
        }
      ],
      "name": "canClaim",
      "outputs": [
        {
          "internalType": "bool",
          "name": "",
          "type": "bool"
        }
      ],
      "stateMutability": "view",
      "type": "function"
    },
    {
      "inputs": [],
      "name": "isPaused",
      "outputs": [
        {
          "internalType": "bool",
          "name": "",
          "type": "bool"
        }
      ],
      "stateMutability": "view",
      "type": "function"
    },
    {
      "inputs": [
        {
          "internalType": "address",
          "name": "",
          "type": "address"
        }
      ],
      "name": "lastClaimAt",
      "outputs": [
        {
          "internalType": "uint256",
          "name": "",
          "type": "uint256"
        }
      ],
      "stateMutability": "view",
      "type": "function"
    },
    {
      "inputs": [
        {
          "internalType": "address",
          "name": "user",
          "type": "address"
        }
      ],
      "name": "remainingAllowance",
      "outputs": [
        {
          "internalType": "uint256",
          "name": "",
          "type": "uint256"
        }
      ],
      "stateMutability": "view",
      "type": "function"
    },
    {
      "inputs": [],
      "name": "requestTokens",
      "outputs": [],
      "stateMutability": "nonpayable",
      "type": "function"
    },
    {
      "inputs": [
        {
          "internalType": "bool",
          "name": "_paused",
          "type": "bool"
        }
      ],
      "name": "setPaused",
      "outputs": [],
      "stateMutability": "nonpayable",
      "type": "function"
    },
    {
      "inputs": [],
      "name": "token",
      "outputs": [
        {
          "internalType": "contract FaucetToken",
          "name": "",
          "type": "address"
        }
      ],
      "stateMutability": "view",
      "type": "function"
    },
    {
      "inputs": [
        {
          "internalType": "address",
          "name": "",
          "type": "address"
        }
      ],
      "name": "totalClaimed",
      "outputs": [
        {
          "internalType": "uint256",
          "name": "",
          "type": "uint256"
        }
      ],
      "stateMutability": "view",
      "type": "function"
    }
  ],
  "bytecode": "0x60a060405234801561001057600080fd5b50604051610e7e380380610e7e8339818101604052810190610032919061017e565b600073ffffffffffffffffffffffffffffffffffffffff168173ffffffffffffffffffffffffffffffffffffffff16036100a1576040517f08c379a000000000000000000000000000000000000000000000000000000000815260040161009890610208565b60405180910390fd5b8073ffffffffffffffffffffffffffffffffffffffff1660808173ffffffffffffffffffffffffffffffffffffffff1681525050336000806101000a81548173ffffffffffffffffffffffffffffffffffffffff021916908373ffffffffffffffffffffffffffffffffffffffff16021790555050610228565b600080fd5b600073ffffffffffffffffffffffffffffffffffffffff82169050919050565b600061014b82610120565b9050919050565b61015b81610140565b811461016657600080fd5b50565b60008151905061017881610152565b92915050565b6000602082840312156101945761019361011b565b5b60006101a284828501610169565b91505092915050565b600082825260208201905092915050565b7f496e76616c696420746f6b656e20616464726573730000000000000000000000600082015250565b60006101f26015836101ab565b91506101fd826101bc565b602082019050919050565b60006020820190508181036000830152610221816101e5565b9050919050565b608051610c3461024a600039600081816104de015261073b0152610c346000f3fe608060405234801561001057600080fd5b50600436106100b45760003560e01c8063bf3506c111610071578063bf3506c114610169578063e362b4f714610199578063ef5d9ae8146101b7578063f357df6d146101e7578063f851a44014610217578063fc0c546a14610235576100b4565b806303822d3b146100b957806316c38b3c146100e9578063359cf2b714610105578063766976401461010f5780637d2632451461012d578063b187bd261461014b575b600080fd5b6100d360048036038101906100ce91906107c0565b610253565b6040516100e09190610806565b60405180910390f35b61010360048036038101906100fe9190610859565b61026b565b005b61010d61034d565b005b6101176105cd565b6040516101249190610806565b60405180910390f35b6101356105da565b6040516101429190610806565b60405180910390f35b6101536105e1565b6040516101609190610895565b60405180910390f35b610183600480360381019061017e91906107c0565b6105f7565b6040516101909190610895565b60405180910390f35b6101a161067e565b6040516101ae9190610806565b60405180910390f35b6101d160048036038101906101cc91906107c0565b61068b565b6040516101de9190610806565b60405180910390f35b61020160048036038101906101fc91906107c0565b6106a3565b60405161020e9190610806565b60405180910390f35b61021f610715565b60405161022c91906108bf565b60405180910390f35b61023d610739565b60405161024a9190610939565b60405180910390f35b60016020528060005260406000206000915090505481565b60008054906101000a900473ffffffffffffffffffffffffffffffffffffffff1673ffffffffffffffffffffffffffffffffffffffff163373ffffffffffffffffffffffffffffffffffffffff16146102f9576040517f08c379a00000000000000000000000000000000000000000000000000000000081526004016102f0906109b1565b60405180910390fd5b80600060146101000a81548160ff0219169083151502179055507f50cfd8deb0b293676ae69355a9eed053a00f81d3bd6a0ae4dc082629e6476f7f816040516103429190610895565b60405180910390a150565b600060149054906101000a900460ff161561039d576040517f08c379a000000000000000000000000000000000000000000000000000000000815260040161039490610a1d565b60405180910390fd5b6103a6336105f7565b6103e5576040517f08c379a00000000000000000000000000000000000000000000000000000000081526004016103dc90610a89565b60405180910390fd5b68056bc75e2d631000006103f8336106a3565b1015610439576040517f08c379a000000000000000000000000000000000000000000000000000000000815260040161043090610af5565b60405180910390fd5b42600160003373ffffffffffffffffffffffffffffffffffffffff1673ffffffffffffffffffffffffffffffffffffffff1681526020019081526020016000208190555068056bc75e2d63100000600260003373ffffffffffffffffffffffffffffffffffffffff1673ffffffffffffffffffffffffffffffffffffffff16815260200190815260200160002060008282546104d59190610b44565b925050819055507f000000000000000000000000000000000000000000000000000000000000000073ffffffffffffffffffffffffffffffffffffffff166340c10f193368056bc75e2d631000006040518363ffffffff1660e01b8152600401610540929190610b78565b600060405180830381600087803b15801561055a57600080fd5b505af115801561056e573d6000803e3d6000fd5b505050503373ffffffffffffffffffffffffffffffffffffffff167f9923b4306c6c030f2bdfbf156517d5983b87e15b96176da122cd4f2effa4ba7b68056bc75e2d63100000426040516105c3929190610ba1565b60405180910390a2565b68056bc75e2d6310000081565b6201518081565b60008060149054906101000a900460ff16905090565b60008060149054906101000a900460ff16156106165760009050610679565b62015180600160008473ffffffffffffffffffffffffffffffffffffffff1673ffffffffffffffffffffffffffffffffffffffff168152602001908152602001600020546106649190610b44565b4210156106745760009050610679565b600190505b919050565b683635c9adc5dea0000081565b60026020528060005260406000206000915090505481565b600080600260008473ffffffffffffffffffffffffffffffffffffffff1673ffffffffffffffffffffffffffffffffffffffff16815260200190815260200160002054683635c9adc5dea000006106fa9190610bca565b90506000811161070b57600061070d565b805b915050919050565b60008054906101000a900473ffffffffffffffffffffffffffffffffffffffff1681565b7f000000000000000000000000000000000000000000000000000000000000000081565b600080fd5b600073ffffffffffffffffffffffffffffffffffffffff82169050919050565b600061078d82610762565b9050919050565b61079d81610782565b81146107a857600080fd5b50565b6000813590506107ba81610794565b92915050565b6000602082840312156107d6576107d561075d565b5b60006107e4848285016107ab565b91505092915050565b6000819050919050565b610800816107ed565b82525050565b600060208201905061081b60008301846107f7565b92915050565b60008115159050919050565b61083681610821565b811461084157600080fd5b50565b6000813590506108538161082d565b92915050565b60006020828403121561086f5761086e61075d565b5b600061087d84828501610844565b91505092915050565b61088f81610821565b82525050565b60006020820190506108aa6000830184610886565b92915050565b6108b981610782565b82525050565b60006020820190506108d460008301846108b0565b92915050565b6000819050919050565b60006108ff6108fa6108f584610762565b6108da565b610762565b9050919050565b6000610911826108e4565b9050919050565b600061092382610906565b9050919050565b61093381610918565b82525050565b600060208201905061094e600083018461092a565b92915050565b600082825260208201905092915050565b7f4f6e6c792061646d696e00000000000000000000000000000000000000000000600082015250565b600061099b600a83610954565b91506109a682610965565b602082019050919050565b600060208201905081810360008301526109ca8161098e565b9050919050565b7f4661756365742069732070617573656400000000000000000000000000000000600082015250565b6000610a07601083610954565b9150610a12826109d1565b602082019050919050565b60006020820190508181036000830152610a36816109fa565b9050919050565b7f436f6f6c646f776e20706572696f64206e6f7420656c61707365640000000000600082015250565b6000610a73601b83610954565b9150610a7e82610a3d565b602082019050919050565b60006020820190508181036000830152610aa281610a66565b9050919050565b7f4c69666574696d6520636c61696d206c696d6974207265616368656400000000600082015250565b6000610adf601c83610954565b9150610aea82610aa9565b602082019050919050565b60006020820190508181036000830152610b0e81610ad2565b9050919050565b7f4e487b7100000000000000000000000000000000000000000000000000000000600052601160045260246000fd5b6000610b4f826107ed565b9150610b5a836107ed565b9250828201905080821115610b7257610b71610b15565b5b92915050565b6000604082019050610b8d60008301856108b0565b610b9a60208301846107f7565b9392505050565b6000604082019050610bb660008301856107f7565b610bc360208301846107f7565b9392505050565b6000610bd5826107ed565b9150610be0836107ed565b9250828203905081811115610bf857610bf7610b15565b5b9291505056fea26469706673582212204f41aa35a1889058960f6f360daf929cef2bcd6630120d785d1da34255dbcb0a64736f6c634300081c0033",
  "linkReferences": {},
  "deployedLinkReferences": {}
}